{
  "_format": "hh-sol-artifact-1",
  "contractName": "YourToken",
  "sourceName": "contracts/Lock.sol",
  "abi": [
    {
      "inputs": [
        {
          "internalType": "string",
          "name": "tokenName",
          "type": "string"
        },
        {
          "internalType": "string",
          "name": "tokenSymbol",
          "type": "string"
        },
        {
          "internalType": "uint8",
          "name": "decimalUnits",
          "type": "uint8"
        },
        {
          "internalType": "uint256",
          "name": "initialSupply",
          "type": "uint256"
        }
      ],
      "stateMutability": "nonpayable",
      "type": "constructor"
    },
    {
      "anonymous": false,
      "inputs": [
        {
          "indexed": true,
          "internalType": "address",
          "name": "from",
          "type": "address"
        },
        {
          "indexed": false,
          "internalType": "uint256",
          "name": "value",
          "type": "uint256"
        }
      ],
      "name": "Burn",
      "type": "event"
    },
    {
      "anonymous": false,
      "inputs": [
        {
          "indexed": true,
          "internalType": "address",
          "name": "from",
          "type": "address"
        },
        {
          "indexed": true,
          "internalType": "address",
          "name": "to",
          "type": "address"
        },
        {
          "indexed": false,
          "internalType": "uint256",
          "name": "value",
          "type": "uint256"
        }
      ],
      "name": "Transfer",
      "type": "event"
    },
    {
      "inputs": [
        {
          "internalType": "address",
          "name": "",
          "type": "address"
        }
      ],
      "name": "balanceOf",
      "outputs": [
        {
          "internalType": "uint256",
          "name": "",
          "type": "uint256"
        }
      ],
      "stateMutability": "view",
      "type": "function"
    },
    {
      "inputs": [
        {
          "internalType": "uint256",
          "name": "amount",
          "type": "uint256"
        }
      ],
      "name": "burn",
      "outputs": [],
      "stateMutability": "nonpayable",
      "type": "function"
    },
    {
      "inputs": [],
      "name": "decimals",
      "outputs": [
        {
          "internalType": "uint8",
          "name": "",
          "type": "uint8"
        }
      ],
      "stateMutability": "view",
      "type": "function"
    },
    {
      "inputs": [
        {
          "internalType": "address",
          "name": "to",
          "type": "address"
        },
        {
          "internalType": "uint256",
          "name": "amount",
          "type": "uint256"
        }
      ],
      "name": "mint",
      "outputs": [],
      "stateMutability": "nonpayable",
      "type": "function"
    },
    {
      "inputs": [],
      "name": "name",
      "outputs": [
        {
          "internalType": "string",
          "name": "",
          "type": "string"
        }
      ],
      "stateMutability": "view",
      "type": "function"
    },
    {
      "inputs": [],
      "name": "owner",
      "outputs": [
        {
          "internalType": "address",
          "name": "",
          "type": "address"
        }
      ],
      "stateMutability": "view",
      "type": "function"
    },
    {
      "inputs": [],
      "name": "symbol",
      "outputs": [
        {
          "internalType": "string",
          "name": "",
          "type": "string"
        }
      ],
      "stateMutability": "view",
      "type": "function"
    },
    {
      "inputs": [],
      "name": "totalSupply",
      "outputs": [
        {
          "internalType": "uint256",
          "name": "",
          "type": "uint256"
        }
      ],
      "stateMutability": "view",
      "type": "function"
    },
    {
      "inputs": [
        {
          "internalType": "address",
          "name": "to",
          "type": "address"
        },
        {
          "internalType": "uint256",
          "name": "amount",
          "type": "uint256"
        }
      ],
      "name": "transfer",
      "outputs": [],
      "stateMutability": "nonpayable",
      "type": "function"
    }
  ],
  "bytecode": "0x60806040523480156200001157600080fd5b506040516200137d3803806200137d833981810160405281019062000037919062000299565b83600090805190602001906200004f92919062000149565b5082600190805190602001906200006892919062000149565b5081600260006101000a81548160ff021916908360ff160217905550600260009054906101000a900460ff1660ff16600a620000a59190620003f9565b81620000b2919062000536565b60038190555033600560006101000a81548173ffffffffffffffffffffffffffffffffffffffff021916908373ffffffffffffffffffffffffffffffffffffffff160217905550600354600460003373ffffffffffffffffffffffffffffffffffffffff1673ffffffffffffffffffffffffffffffffffffffff1681526020019081526020016000208190555050505050620006e8565b8280546200015790620005e4565b90600052602060002090601f0160209004810192826200017b5760008555620001c7565b82601f106200019657805160ff1916838001178555620001c7565b82800160010185558215620001c7579182015b82811115620001c6578251825591602001919060010190620001a9565b5b509050620001d69190620001da565b5090565b5b80821115620001f5576000816000905550600101620001db565b5090565b6000620002106200020a846200036b565b62000337565b9050828152602081018484840111156200022957600080fd5b62000236848285620005ae565b509392505050565b600082601f8301126200025057600080fd5b815162000262848260208601620001f9565b91505092915050565b6000815190506200027c81620006b4565b92915050565b6000815190506200029381620006ce565b92915050565b60008060008060808587031215620002b057600080fd5b600085015167ffffffffffffffff811115620002cb57600080fd5b620002d9878288016200023e565b945050602085015167ffffffffffffffff811115620002f757600080fd5b62000305878288016200023e565b9350506040620003188782880162000282565b92505060606200032b878288016200026b565b91505092959194509250565b6000604051905081810181811067ffffffffffffffff8211171562000361576200036062000678565b5b8060405250919050565b600067ffffffffffffffff82111562000389576200038862000678565b5b601f19601f8301169050602081019050919050565b6000808291508390505b6001851115620003f057808604811115620003c857620003c76200061a565b5b6001851615620003d85780820291505b8081029050620003e885620006a7565b9450620003a8565b94509492505050565b6000620004068262000597565b9150620004138362000597565b9250620004427fffffffffffffffffffffffffffffffffffffffffffffffffffffffffffffffff84846200044a565b905092915050565b6000826200045c57600190506200052f565b816200046c57600090506200052f565b81600181146200048557600281146200049057620004c6565b60019150506200052f565b60ff841115620004a557620004a46200061a565b5b8360020a915084821115620004bf57620004be6200061a565b5b506200052f565b5060208310610133831016604e8410600b8410161715620005005782820a905083811115620004fa57620004f96200061a565b5b6200052f565b6200050f84848460016200039e565b925090508184048111156200052957620005286200061a565b5b81810290505b9392505050565b6000620005438262000597565b9150620005508362000597565b9250817fffffffffffffffffffffffffffffffffffffffffffffffffffffffffffffffff04831182151516156200058c576200058b6200061a565b5b828202905092915050565b6000819050919050565b600060ff82169050919050565b60005b83811015620005ce578082015181840152602081019050620005b1565b83811115620005de576000848401525b50505050565b60006002820490506001821680620005fd57607f821691505b6020821081141562000614576200061362000649565b5b50919050565b7f4e487b7100000000000000000000000000000000000000000000000000000000600052601160045260246000fd5b7f4e487b7100000000000000000000000000000000000000000000000000000000600052602260045260246000fd5b7f4e487b7100000000000000000000000000000000000000000000000000000000600052604160045260246000fd5b60008160011c9050919050565b620006bf8162000597565b8114620006cb57600080fd5b50565b620006d981620005a1565b8114620006e557600080fd5b50565b610c8580620006f86000396000f3fe608060405234801561001057600080fd5b50600436106100935760003560e01c806342966c681161006657806342966c681461010e57806370a082311461012a5780638da5cb5b1461015a57806395d89b4114610178578063a9059cbb1461019657610093565b806306fdde031461009857806318160ddd146100b6578063313ce567146100d457806340c10f19146100f2575b600080fd5b6100a06101b2565b6040516100ad91906109a6565b60405180910390f35b6100be610240565b6040516100cb9190610a28565b60405180910390f35b6100dc610246565b6040516100e99190610a43565b60405180910390f35b61010c600480360381019061010791906107da565b610259565b005b61012860048036038101906101239190610816565b61035c565b005b610144600480360381019061013f91906107b1565b6104e1565b6040516101519190610a28565b60405180910390f35b6101626104f9565b60405161016f919061098b565b60405180910390f35b61018061051f565b60405161018d91906109a6565b60405180910390f35b6101b060048036038101906101ab91906107da565b6105ad565b005b600080546101bf90610b80565b80601f01602080910402602001604051908101604052809291908181526020018280546101eb90610b80565b80156102385780601f1061020d57610100808354040283529160200191610238565b820191906000526020600020905b81548152906001019060200180831161021b57829003601f168201915b505050505081565b60035481565b600260009054906101000a900460ff1681565b600560009054906101000a900473ffffffffffffffffffffffffffffffffffffffff1673ffffffffffffffffffffffffffffffffffffffff163373ffffffffffffffffffffffffffffffffffffffff16146102e9576040517f08c379a00000000000000000000000000000000000000000000000000000000081526004016102e0906109c8565b60405180910390fd5b80600460008473ffffffffffffffffffffffffffffffffffffffff1673ffffffffffffffffffffffffffffffffffffffff16815260200190815260200160002060008282546103389190610a7a565b9250508190555080600360008282546103519190610a7a565b925050819055505050565b6000811161039f576040517f08c379a0000000000000000000000000000000000000000000000000000000008152600401610396906109e8565b60405180910390fd5b80600460003373ffffffffffffffffffffffffffffffffffffffff1673ffffffffffffffffffffffffffffffffffffffff168152602001908152602001600020541015610421576040517f08c379a000000000000000000000000000000000000000000000000000000000815260040161041890610a08565b60405180910390fd5b80600460003373ffffffffffffffffffffffffffffffffffffffff1673ffffffffffffffffffffffffffffffffffffffff16815260200190815260200160002060008282546104709190610ad0565b9250508190555080600360008282546104899190610ad0565b925050819055503373ffffffffffffffffffffffffffffffffffffffff167fcc16f5dbb4873280815c1ee09dbd06736cffcc184412cf7a71a0fdb75d397ca5826040516104d69190610a28565b60405180910390a250565b60046020528060005260406000206000915090505481565b600560009054906101000a900473ffffffffffffffffffffffffffffffffffffffff1681565b6001805461052c90610b80565b80601f016020809104026020016040519081016040528092919081815260200182805461055890610b80565b80156105a55780601f1061057a576101008083540402835291602001916105a5565b820191906000526020600020905b81548152906001019060200180831161058857829003601f168201915b505050505081565b600081116105f0576040517f08c379a00000000000000000000000000000000000000000000000000000000081526004016105e7906109e8565b60405180910390fd5b80600460003373ffffffffffffffffffffffffffffffffffffffff1673ffffffffffffffffffffffffffffffffffffffff168152602001908152602001600020541015610672576040517f08c379a000000000000000000000000000000000000000000000000000000000815260040161066990610a08565b60405180910390fd5b80600460003373ffffffffffffffffffffffffffffffffffffffff1673ffffffffffffffffffffffffffffffffffffffff16815260200190815260200160002060008282546106c19190610ad0565b9250508190555080600460008473ffffffffffffffffffffffffffffffffffffffff1673ffffffffffffffffffffffffffffffffffffffff16815260200190815260200160002060008282546107179190610a7a565b925050819055508173ffffffffffffffffffffffffffffffffffffffff163373ffffffffffffffffffffffffffffffffffffffff167fddf252ad1be2c89b69c2b068fc378daa952ba7f163c4a11628f55a4df523b3ef8360405161077b9190610a28565b60405180910390a35050565b60008135905061079681610c21565b92915050565b6000813590506107ab81610c38565b92915050565b6000602082840312156107c357600080fd5b60006107d184828501610787565b91505092915050565b600080604083850312156107ed57600080fd5b60006107fb85828601610787565b925050602061080c8582860161079c565b9150509250929050565b60006020828403121561082857600080fd5b60006108368482850161079c565b91505092915050565b61084881610b04565b82525050565b600061085982610a5e565b6108638185610a69565b9350610873818560208601610b4d565b61087c81610c10565b840191505092915050565b6000610894602783610a69565b91507f4f6e6c792074686520636f6e7472616374206f776e65722063616e206d696e7460008301527f20746f6b656e73000000000000000000000000000000000000000000000000006020830152604082019050919050565b60006108fa602083610a69565b91507f416d6f756e74206d7573742062652067726561746572207468616e207a65726f6000830152602082019050919050565b600061093a601483610a69565b91507f496e73756666696369656e742062616c616e63650000000000000000000000006000830152602082019050919050565b61097681610b36565b82525050565b61098581610b40565b82525050565b60006020820190506109a0600083018461083f565b92915050565b600060208201905081810360008301526109c0818461084e565b905092915050565b600060208201905081810360008301526109e181610887565b9050919050565b60006020820190508181036000830152610a01816108ed565b9050919050565b60006020820190508181036000830152610a218161092d565b9050919050565b6000602082019050610a3d600083018461096d565b92915050565b6000602082019050610a58600083018461097c565b92915050565b600081519050919050565b600082825260208201905092915050565b6000610a8582610b36565b9150610a9083610b36565b9250827fffffffffffffffffffffffffffffffffffffffffffffffffffffffffffffffff03821115610ac557610ac4610bb2565b5b828201905092915050565b6000610adb82610b36565b9150610ae683610b36565b925082821015610af957610af8610bb2565b5b828203905092915050565b6000610b0f82610b16565b9050919050565b600073ffffffffffffffffffffffffffffffffffffffff82169050919050565b6000819050919050565b600060ff82169050919050565b60005b83811015610b6b578082015181840152602081019050610b50565b83811115610b7a576000848401525b50505050565b60006002820490506001821680610b9857607f821691505b60208210811415610bac57610bab610be1565b5b50919050565b7f4e487b7100000000000000000000000000000000000000000000000000000000600052601160045260246000fd5b7f4e487b7100000000000000000000000000000000000000000000000000000000600052602260045260246000fd5b6000601f19601f8301169050919050565b610c2a81610b04565b8114610c3557600080fd5b50565b610c4181610b36565b8114610c4c57600080fd5b5056fea2646970667358221220fa414b01f9d1d1f647074e261a00a2673b4fc9016d904963b808463955bfcc9264736f6c63430008000033",
  "linkReferences": {},
  "deployedLinkReferences": {}
}